{
  "contractName": "Goojob",
  "abi": [
    {
      "inputs": [
        {
          "internalType": "address",
          "name": "_tokenAddress",
          "type": "address"
        }
      ],
      "stateMutability": "nonpayable",
      "type": "constructor"
    },
    {
      "anonymous": false,
      "inputs": [
        {
          "indexed": true,
          "internalType": "address",
          "name": "previousOwner",
          "type": "address"
        },
        {
          "indexed": true,
          "internalType": "address",
          "name": "newOwner",
          "type": "address"
        }
      ],
      "name": "OwnershipTransferred",
      "type": "event"
    },
    {
      "inputs": [],
      "name": "contractor",
      "outputs": [
        {
          "internalType": "address payable",
          "name": "",
          "type": "address"
        }
      ],
      "stateMutability": "view",
      "type": "function",
      "constant": true
    },
    {
      "inputs": [],
      "name": "freelancer",
      "outputs": [
        {
          "internalType": "address payable",
          "name": "",
          "type": "address"
        }
      ],
      "stateMutability": "view",
      "type": "function",
      "constant": true
    },
    {
      "inputs": [
        {
          "internalType": "address",
          "name": "",
          "type": "address"
        }
      ],
      "name": "frozenBalances",
      "outputs": [
        {
          "internalType": "uint256",
          "name": "",
          "type": "uint256"
        }
      ],
      "stateMutability": "view",
      "type": "function",
      "constant": true
    },
    {
      "inputs": [],
      "name": "fundsAreFrozen",
      "outputs": [
        {
          "internalType": "bool",
          "name": "",
          "type": "bool"
        }
      ],
      "stateMutability": "view",
      "type": "function",
      "constant": true
    },
    {
      "inputs": [],
      "name": "owner",
      "outputs": [
        {
          "internalType": "address",
          "name": "",
          "type": "address"
        }
      ],
      "stateMutability": "view",
      "type": "function",
      "constant": true
    },
    {
      "inputs": [],
      "name": "renounceOwnership",
      "outputs": [],
      "stateMutability": "nonpayable",
      "type": "function"
    },
    {
      "inputs": [],
      "name": "token",
      "outputs": [
        {
          "internalType": "contract ERC20Interface",
          "name": "",
          "type": "address"
        }
      ],
      "stateMutability": "view",
      "type": "function",
      "constant": true
    },
    {
      "inputs": [
        {
          "internalType": "address",
          "name": "newOwner",
          "type": "address"
        }
      ],
      "name": "transferOwnership",
      "outputs": [],
      "stateMutability": "nonpayable",
      "type": "function"
    },
    {
      "inputs": [],
      "name": "toggleFreeze",
      "outputs": [],
      "stateMutability": "nonpayable",
      "type": "function"
    },
    {
      "inputs": [],
      "name": "freezeTokens",
      "outputs": [],
      "stateMutability": "nonpayable",
      "type": "function"
    },
    {
      "inputs": [
        {
          "internalType": "address",
          "name": "addr",
          "type": "address"
        },
        {
          "internalType": "uint256",
          "name": "amount",
          "type": "uint256"
        }
      ],
      "name": "hasMinimumTokens",
      "outputs": [
        {
          "internalType": "bool",
          "name": "",
          "type": "bool"
        }
      ],
      "stateMutability": "view",
      "type": "function",
      "constant": true
    },
    {
      "inputs": [
        {
          "internalType": "address",
          "name": "addr",
          "type": "address"
        }
      ],
      "name": "hasAtLeast100Tokens",
      "outputs": [
        {
          "internalType": "bool",
          "name": "",
          "type": "bool"
        }
      ],
      "stateMutability": "view",
      "type": "function",
      "constant": true
    },
    {
      "inputs": [],
      "name": "getContractorTokenAmount",
      "outputs": [
        {
          "internalType": "uint256",
          "name": "",
          "type": "uint256"
        }
      ],
      "stateMutability": "view",
      "type": "function",
      "constant": true
    },
    {
      "inputs": [
        {
          "internalType": "address payable",
          "name": "_contractor",
          "type": "address"
        }
      ],
      "name": "setContractor",
      "outputs": [],
      "stateMutability": "nonpayable",
      "type": "function"
    },
    {
      "inputs": [],
      "name": "getState_started",
      "outputs": [
        {
          "internalType": "bool",
          "name": "",
          "type": "bool"
        }
      ],
      "stateMutability": "view",
      "type": "function",
      "constant": true
    },
    {
      "inputs": [
        {
          "internalType": "address payable",
          "name": "_freelancer",
          "type": "address"
        }
      ],
      "name": "setFreelancerAccess",
      "outputs": [],
      "stateMutability": "nonpayable",
      "type": "function"
    },
    {
      "inputs": [
        {
          "internalType": "uint256",
          "name": "_amount",
          "type": "uint256"
        }
      ],
      "name": "setupJob",
      "outputs": [],
      "stateMutability": "nonpayable",
      "type": "function"
    },
    {
      "inputs": [
        {
          "internalType": "bool",
          "name": "accept",
          "type": "bool"
        }
      ],
      "name": "acceptJob",
      "outputs": [],
      "stateMutability": "nonpayable",
      "type": "function"
    },
    {
      "inputs": [
        {
          "internalType": "bool",
          "name": "conditionsMet",
          "type": "bool"
        }
      ],
      "name": "closeJob",
      "outputs": [],
      "stateMutability": "payable",
      "type": "function",
      "payable": true
    }
  ],
  "bytecode": "0x60806040526001600660006101000a81548160ff0219169083151502179055503480156200002c57600080fd5b506040516200204d3803806200204d83398181016040528101906200005291906200019d565b6200007262000066620000ba60201b60201c565b620000c260201b60201c565b80600460016101000a81548173ffffffffffffffffffffffffffffffffffffffff021916908373ffffffffffffffffffffffffffffffffffffffff1602179055505062000217565b600033905090565b60008060009054906101000a900473ffffffffffffffffffffffffffffffffffffffff169050816000806101000a81548173ffffffffffffffffffffffffffffffffffffffff021916908373ffffffffffffffffffffffffffffffffffffffff1602179055508173ffffffffffffffffffffffffffffffffffffffff168173ffffffffffffffffffffffffffffffffffffffff167f8be0079c531659141344cd1fd0a4f28419497f9722a3daafe3b4186f6b6457e060405160405180910390a35050565b6000815190506200019781620001fd565b92915050565b600060208284031215620001b057600080fd5b6000620001c08482850162000186565b91505092915050565b6000620001d682620001dd565b9050919050565b600073ffffffffffffffffffffffffffffffffffffffff82169050919050565b6200020881620001c9565b81146200021457600080fd5b50565b611e2680620002276000396000f3fe6080604052600436106101145760003560e01c80638da5cb5b116100a0578063da9f487511610064578063da9f487514610358578063e26580271461036f578063f2fde38b146103ac578063fbfd2045146103d5578063fc0c546a1461040057610114565b80638da5cb5b14610290578063a28caf3e146102bb578063a37dda2c146102e6578063c5ddfdef14610311578063ca51c7b51461032d57610114565b80635adc865d116100e75780635adc865d146101bf5780636bdd02dd146101e8578063715018a6146102135780637c6cd4041461022a578063835977d71461025357610114565b80630ad9e7bf146101195780632201434d1461015657806334fc25911461017f5780634aac452514610196575b600080fd5b34801561012557600080fd5b50610140600480360381019061013b91906114a7565b61042b565b60405161014d91906119ef565b60405180910390f35b34801561016257600080fd5b5061017d600480360381019061017891906114d0565b610443565b005b34801561018b57600080fd5b50610194610591565b005b3480156101a257600080fd5b506101bd60048036038101906101b891906114d0565b6105c5565b005b3480156101cb57600080fd5b506101e660048036038101906101e19190611535565b610681565b005b3480156101f457600080fd5b506101fd610766565b60405161020a9190611879565b60405180910390f35b34801561021f57600080fd5b5061022861077d565b005b34801561023657600080fd5b50610251600480360381019061024c9190611587565b610791565b005b34801561025f57600080fd5b5061027a600480360381019061027591906114f9565b6108c7565b6040516102879190611879565b60405180910390f35b34801561029c57600080fd5b506102a561097f565b6040516102b29190611791565b60405180910390f35b3480156102c757600080fd5b506102d06109a8565b6040516102dd91906119ef565b60405180910390f35b3480156102f257600080fd5b506102fb610a7c565b60405161030891906117c7565b60405180910390f35b61032b60048036038101906103269190611535565b610aa2565b005b34801561033957600080fd5b50610342610c4c565b60405161034f9190611879565b60405180910390f35b34801561036457600080fd5b5061036d610c5f565b005b34801561037b57600080fd5b50610396600480360381019061039191906114a7565b610e3f565b6040516103a39190611879565b60405180910390f35b3480156103b857600080fd5b506103d360048036038101906103ce91906114a7565b610e53565b005b3480156103e157600080fd5b506103ea610ed7565b6040516103f791906117c7565b60405180910390f35b34801561040c57600080fd5b50610415610efd565b6040516104229190611894565b60405180910390f35b60056020528060005260406000206000915090505481565b600073ffffffffffffffffffffffffffffffffffffffff16600160009054906101000a900473ffffffffffffffffffffffffffffffffffffffff1673ffffffffffffffffffffffffffffffffffffffff1614156104d5576040517f08c379a00000000000000000000000000000000000000000000000000000000081526004016104cc906118af565b60405180910390fd5b6104dd610f23565b600073ffffffffffffffffffffffffffffffffffffffff168173ffffffffffffffffffffffffffffffffffffffff16141561054d576040517f08c379a0000000000000000000000000000000000000000000000000000000008152600401610544906119cf565b60405180910390fd5b80600260006101000a81548173ffffffffffffffffffffffffffffffffffffffff021916908373ffffffffffffffffffffffffffffffffffffffff16021790555050565b610599610f23565b600660009054906101000a900460ff1615600660006101000a81548160ff021916908315150217905550565b6105cd610f23565b600073ffffffffffffffffffffffffffffffffffffffff168173ffffffffffffffffffffffffffffffffffffffff16141561063d576040517f08c379a0000000000000000000000000000000000000000000000000000000008152600401610634906118af565b60405180910390fd5b80600160006101000a81548173ffffffffffffffffffffffffffffffffffffffff021916908373ffffffffffffffffffffffffffffffffffffffff16021790555050565b600260009054906101000a900473ffffffffffffffffffffffffffffffffffffffff1673ffffffffffffffffffffffffffffffffffffffff163373ffffffffffffffffffffffffffffffffffffffff1614610711576040517f08c379a0000000000000000000000000000000000000000000000000000000008152600401610708906119af565b60405180910390fd5b610719610fa1565b801561074757610727611225565b6001600460006101000a81548160ff021916908315150217905550610763565b6000600460006101000a81548160ff0219169083151502179055505b50565b6000600460009054906101000a900460ff16905090565b610785610f23565b61078f600061135d565b565b600073ffffffffffffffffffffffffffffffffffffffff16600160009054906101000a900473ffffffffffffffffffffffffffffffffffffffff1673ffffffffffffffffffffffffffffffffffffffff161415610823576040517f08c379a000000000000000000000000000000000000000000000000000000000815260040161081a906118af565b60405180910390fd5b600073ffffffffffffffffffffffffffffffffffffffff16600260009054906101000a900473ffffffffffffffffffffffffffffffffffffffff1673ffffffffffffffffffffffffffffffffffffffff1614156108b5576040517f08c379a00000000000000000000000000000000000000000000000000000000081526004016108ac906119cf565b60405180910390fd5b6108bd610f23565b8060038190555050565b600081600460019054906101000a900473ffffffffffffffffffffffffffffffffffffffff1673ffffffffffffffffffffffffffffffffffffffff166370a08231856040518263ffffffff1660e01b81526004016109259190611791565b60206040518083038186803b15801561093d57600080fd5b505afa158015610951573d6000803e3d6000fd5b505050506040513d601f19601f8201168201806040525081019061097591906115b0565b1015905092915050565b60008060009054906101000a900473ffffffffffffffffffffffffffffffffffffffff16905090565b6000600460019054906101000a900473ffffffffffffffffffffffffffffffffffffffff1673ffffffffffffffffffffffffffffffffffffffff166370a08231600260009054906101000a900473ffffffffffffffffffffffffffffffffffffffff166040518263ffffffff1660e01b8152600401610a2791906117ac565b60206040518083038186803b158015610a3f57600080fd5b505afa158015610a53573d6000803e3d6000fd5b505050506040513d601f19601f82011682018060405250810190610a7791906115b0565b905090565b600260009054906101000a900473ffffffffffffffffffffffffffffffffffffffff1681565b610aaa610f23565b60011515600460009054906101000a900460ff16151514610b00576040517f08c379a0000000000000000000000000000000000000000000000000000000008152600401610af79061198f565b60405180910390fd5b6003544711610b44576040517f08c379a0000000000000000000000000000000000000000000000000000000008152600401610b3b9061192f565b60405180910390fd5b8015610bba57600260009054906101000a900473ffffffffffffffffffffffffffffffffffffffff1673ffffffffffffffffffffffffffffffffffffffff166108fc6003549081150290604051600060405180830381858888f19350505050158015610bb4573d6000803e3d6000fd5b50610c26565b600160009054906101000a900473ffffffffffffffffffffffffffffffffffffffff1673ffffffffffffffffffffffffffffffffffffffff166108fc6003549081150290604051600060405180830381858888f19350505050158015610c24573d6000803e3d6000fd5b505b60006003819055506000600460006101000a81548160ff02191690831515021790555050565b600660009054906101000a900460ff1681565b600660009054906101000a900460ff1615610caf576040517f08c379a0000000000000000000000000000000000000000000000000000000008152600401610ca69061190f565b60405180910390fd5b600460019054906101000a900473ffffffffffffffffffffffffffffffffffffffff1673ffffffffffffffffffffffffffffffffffffffff166323b872dd600160009054906101000a900473ffffffffffffffffffffffffffffffffffffffff16306003546040518463ffffffff1660e01b8152600401610d3293929190611819565b602060405180830381600087803b158015610d4c57600080fd5b505af1158015610d60573d6000803e3d6000fd5b505050506040513d601f19601f82011682018060405250810190610d84919061155e565b610dc3576040517f08c379a0000000000000000000000000000000000000000000000000000000008152600401610dba906118ef565b60405180910390fd5b60035460056000600160009054906101000a900473ffffffffffffffffffffffffffffffffffffffff1673ffffffffffffffffffffffffffffffffffffffff1673ffffffffffffffffffffffffffffffffffffffff1681526020019081526020016000206000828254610e369190611a1b565b92505081905550565b6000610e4c8260646108c7565b9050919050565b610e5b610f23565b600073ffffffffffffffffffffffffffffffffffffffff168173ffffffffffffffffffffffffffffffffffffffff161415610ecb576040517f08c379a0000000000000000000000000000000000000000000000000000000008152600401610ec2906118cf565b60405180910390fd5b610ed48161135d565b50565b600160009054906101000a900473ffffffffffffffffffffffffffffffffffffffff1681565b600460019054906101000a900473ffffffffffffffffffffffffffffffffffffffff1681565b610f2b611421565b73ffffffffffffffffffffffffffffffffffffffff16610f4961097f565b73ffffffffffffffffffffffffffffffffffffffff1614610f9f576040517f08c379a0000000000000000000000000000000000000000000000000000000008152600401610f969061194f565b60405180910390fd5b565b600660009054906101000a900460ff1615610ff1576040517f08c379a0000000000000000000000000000000000000000000000000000000008152600401610fe89061190f565b60405180910390fd5b60035460056000600160009054906101000a900473ffffffffffffffffffffffffffffffffffffffff1673ffffffffffffffffffffffffffffffffffffffff1673ffffffffffffffffffffffffffffffffffffffff168152602001908152602001600020541015611097576040517f08c379a000000000000000000000000000000000000000000000000000000000815260040161108e9061196f565b60405180910390fd5b60035460056000600160009054906101000a900473ffffffffffffffffffffffffffffffffffffffff1673ffffffffffffffffffffffffffffffffffffffff1673ffffffffffffffffffffffffffffffffffffffff168152602001908152602001600020600082825461110a9190611a71565b92505081905550600460019054906101000a900473ffffffffffffffffffffffffffffffffffffffff1673ffffffffffffffffffffffffffffffffffffffff1663a9059cbb600160009054906101000a900473ffffffffffffffffffffffffffffffffffffffff166003546040518363ffffffff1660e01b8152600401611192929190611850565b602060405180830381600087803b1580156111ac57600080fd5b505af11580156111c0573d6000803e3d6000fd5b505050506040513d601f19601f820116820180604052508101906111e4919061155e565b611223576040517f08c379a000000000000000000000000000000000000000000000000000000000815260040161121a906118ef565b60405180910390fd5b565b600460019054906101000a900473ffffffffffffffffffffffffffffffffffffffff1673ffffffffffffffffffffffffffffffffffffffff166323b872dd600160009054906101000a900473ffffffffffffffffffffffffffffffffffffffff16600260009054906101000a900473ffffffffffffffffffffffffffffffffffffffff166003546040518463ffffffff1660e01b81526004016112ca939291906117e2565b602060405180830381600087803b1580156112e457600080fd5b505af11580156112f8573d6000803e3d6000fd5b505050506040513d601f19601f8201168201806040525081019061131c919061155e565b61135b576040517f08c379a0000000000000000000000000000000000000000000000000000000008152600401611352906118ef565b60405180910390fd5b565b60008060009054906101000a900473ffffffffffffffffffffffffffffffffffffffff169050816000806101000a81548173ffffffffffffffffffffffffffffffffffffffff021916908373ffffffffffffffffffffffffffffffffffffffff1602179055508173ffffffffffffffffffffffffffffffffffffffff168173ffffffffffffffffffffffffffffffffffffffff167f8be0079c531659141344cd1fd0a4f28419497f9722a3daafe3b4186f6b6457e060405160405180910390a35050565b600033905090565b60008135905061143881611d94565b92915050565b60008135905061144d81611dab565b92915050565b60008135905061146281611dc2565b92915050565b60008151905061147781611dc2565b92915050565b60008135905061148c81611dd9565b92915050565b6000815190506114a181611dd9565b92915050565b6000602082840312156114b957600080fd5b60006114c784828501611429565b91505092915050565b6000602082840312156114e257600080fd5b60006114f08482850161143e565b91505092915050565b6000806040838503121561150c57600080fd5b600061151a85828601611429565b925050602061152b8582860161147d565b9150509250929050565b60006020828403121561154757600080fd5b600061155584828501611453565b91505092915050565b60006020828403121561157057600080fd5b600061157e84828501611468565b91505092915050565b60006020828403121561159957600080fd5b60006115a78482850161147d565b91505092915050565b6000602082840312156115c257600080fd5b60006115d084828501611492565b91505092915050565b6115e281611aff565b82525050565b6115f181611ab7565b82525050565b61160081611aa5565b82525050565b61160f81611ac9565b82525050565b61161e81611b11565b82525050565b6000611631603183611a0a565b915061163c82611b88565b604082019050919050565b6000611654602683611a0a565b915061165f82611bd7565b604082019050919050565b6000611677600f83611a0a565b915061168282611c26565b602082019050919050565b600061169a601a83611a0a565b91506116a582611c4f565b602082019050919050565b60006116bd601983611a0a565b91506116c882611c78565b602082019050919050565b60006116e0602083611a0a565b91506116eb82611ca1565b602082019050919050565b6000611703601b83611a0a565b915061170e82611cca565b602082019050919050565b6000611726601883611a0a565b915061173182611cf3565b602082019050919050565b6000611749600e83611a0a565b915061175482611d1c565b602082019050919050565b600061176c603183611a0a565b915061177782611d45565b604082019050919050565b61178b81611af5565b82525050565b60006020820190506117a660008301846115f7565b92915050565b60006020820190506117c160008301846115d9565b92915050565b60006020820190506117dc60008301846115e8565b92915050565b60006060820190506117f760008301866115d9565b61180460208301856115d9565b6118116040830184611782565b949350505050565b600060608201905061182e60008301866115d9565b61183b60208301856115f7565b6118486040830184611782565b949350505050565b600060408201905061186560008301856115d9565b6118726020830184611782565b9392505050565b600060208201905061188e6000830184611606565b92915050565b60006020820190506118a96000830184611615565b92915050565b600060208201905081810360008301526118c881611624565b9050919050565b600060208201905081810360008301526118e881611647565b9050919050565b600060208201905081810360008301526119088161166a565b9050919050565b600060208201905081810360008301526119288161168d565b9050919050565b60006020820190508181036000830152611948816116b0565b9050919050565b60006020820190508181036000830152611968816116d3565b9050919050565b60006020820190508181036000830152611988816116f6565b9050919050565b600060208201905081810360008301526119a881611719565b9050919050565b600060208201905081810360008301526119c88161173c565b9050919050565b600060208201905081810360008301526119e88161175f565b9050919050565b6000602082019050611a046000830184611782565b92915050565b600082825260208201905092915050565b6000611a2682611af5565b9150611a3183611af5565b9250827fffffffffffffffffffffffffffffffffffffffffffffffffffffffffffffffff03821115611a6657611a65611b59565b5b828201905092915050565b6000611a7c82611af5565b9150611a8783611af5565b925082821015611a9a57611a99611b59565b5b828203905092915050565b6000611ab082611ad5565b9050919050565b6000611ac282611ad5565b9050919050565b60008115159050919050565b600073ffffffffffffffffffffffffffffffffffffffff82169050919050565b6000819050919050565b6000611b0a82611b35565b9050919050565b6000611b1c82611b23565b9050919050565b6000611b2e82611ad5565b9050919050565b6000611b4082611b47565b9050919050565b6000611b5282611ad5565b9050919050565b7f4e487b7100000000000000000000000000000000000000000000000000000000600052601160045260246000fd5b7f436f6e74726163746f7220616464726573732073686f756c64206e6f7420626560008201527f20746865207a65726f2061646472657373000000000000000000000000000000602082015250565b7f4f776e61626c653a206e6577206f776e657220697320746865207a65726f206160008201527f6464726573730000000000000000000000000000000000000000000000000000602082015250565b7f5472616e73666572206661696c65640000000000000000000000000000000000600082015250565b7f46756e6473206172652063757272656e746c792066726f7a656e000000000000600082015250565b7f496e73756666696369656e74206c6f636b65642066756e647300000000000000600082015250565b7f4f776e61626c653a2063616c6c6572206973206e6f7420746865206f776e6572600082015250565b7f496e73756666696369656e742066726f7a656e2062616c616e63650000000000600082015250565b7f4e6f2066756e6473206c6f636b656420666f7220757365720000000000000000600082015250565b7f4e6f7420617574686f72697a6564000000000000000000000000000000000000600082015250565b7f467265656c616e63657220616464726573732073686f756c64206e6f7420626560008201527f20746865207a65726f2061646472657373000000000000000000000000000000602082015250565b611d9d81611aa5565b8114611da857600080fd5b50565b611db481611ab7565b8114611dbf57600080fd5b50565b611dcb81611ac9565b8114611dd657600080fd5b50565b611de281611af5565b8114611ded57600080fd5b5056fea264697066735822122070ee6ce026be44623cd4bf3784b55d50e684c28ba9765353ae4e73af0ebc949a64736f6c63430008040033",
  "immutableReferences": {},
  "source": "// SPDX-License-Identifier: MIT\npragma solidity ^0.8.4;\n\nimport \"@openzeppelin/contracts/access/Ownable.sol\";\nimport \"@openzeppelin/contracts/token/ERC20/IERC20.sol\";\n\ninterface ERC20Interface {\n    function transferFrom(address from, address to, uint256 value) external returns (bool);\n    function transfer(address to, uint256 value) external returns (bool);\n    function balanceOf(address account) external view returns (uint256);\n}\n\n/// @title GooJob, an EVM based freelancer<->contractor platform\n/// @author prunkton.eth\n/// @notice This is a ETHMunich 2023 hackathon project\n/// @dev this contract is perfectly fine ;)\n/// @custom:experimental My very first smart contract project\ncontract Goojob is Ownable {\n    address payable public contractor;\n    address payable public freelancer;\n\n    uint256 private amount; // the allowance the SC will freeze up from the contractor until the working contract is resolved\n    bool private state_started;  // if true, all parties agree on conditions\n\n    //###\n    ERC20Interface public token;\n    mapping(address => uint256) public frozenBalances;\n    bool public fundsAreFrozen = true; // default state\n\n    constructor(address _tokenAddress) {\n        token = ERC20Interface(_tokenAddress);\n    }\n\n    function toggleFreeze() external onlyOwner {\n        fundsAreFrozen = !fundsAreFrozen;\n    }\n\n    function freezeTokens() external {\n        require(!fundsAreFrozen, \"Funds are currently frozen\");\n        require(token.transferFrom(contractor, address(this), amount), \"Transfer failed\");\n        frozenBalances[contractor] += amount;\n    }\n\n    function unlockTokensForContractor() private {\n        require(!fundsAreFrozen, \"Funds are currently frozen\");\n        require(frozenBalances[contractor] >= amount, \"Insufficient frozen balance\");\n        \n        frozenBalances[contractor] -= amount;\n        require(token.transfer(contractor, amount), \"Transfer failed\");\n    }\n\n    // Function to check if an address has at least a certain amount of tokens\n    function hasMinimumTokens(address addr, uint256 amount) public view returns (bool) {\n        return token.balanceOf(addr) >= amount;\n    }\n\n    // Example usage: Check if an address has at least 100 tokens\n    function hasAtLeast100Tokens(address addr) public view returns (bool) {\n        return hasMinimumTokens(addr, 100);\n    }\n\n    function getContractorTokenAmount() public view returns (uint256) {\n        return token.balanceOf(freelancer);\n    }\n\n\n    //#####\n\n    // Set contractor\n    // is this redundant with constructor?\n    function setContractor(address payable _contractor) public onlyOwner {\n        require(_contractor != address(0), \"Contractor address should not be the zero address\");\n        contractor = _contractor;\n    }\n\n    function getState_started() public view returns(bool) {\n        return state_started;\n    }\n\n    // The Contractor has to accept the freelancer\n    function setFreelancerAccess(address payable _freelancer) public isContractorAddressValid onlyOwner {\n        require(_freelancer != address(0), \"Freelancer address should not be the zero address\");\n        freelancer = _freelancer;\n    }\n\n    function transferToFreelancer() private {\n        require(token.transferFrom(contractor,freelancer, amount), \"Transfer failed\");\n    }\n\n    // the contractor is setting up the job\n    // the contractor has to define the amount that should get locked up\n    function setupJob(uint256 _amount) public isContractorAddressValid isFreelancerAddressValid onlyOwner{\n        amount = _amount; //we don't check if the amount is available since we will lock it up at a later point\n    }\n\n    // Restricted function\n    // only accessable by the freelancer\n    // it is not possible to activeley freeze or deposit funds from someones addres\n    // so we need to wait for the contractor to deposit the fund on the SC\n    function acceptJob(bool accept) public onlyFreelancerAllowed {\n        unlockTokensForContractor(); //we need to unlock it in both cases, to withdraw it or to give it back\n        if(accept) {\n            transferToFreelancer();\n            //require(address(this).balance > amount, \"Sent value must be greater than 0\");\n            state_started = true;\n        } else{\n            state_started = false; // we are not able to track this event? \n        }\n    }\n\n    // Modifier to restrict function access\n    modifier onlyFreelancerAllowed() {\n        require(msg.sender == freelancer, \"Not authorized\");\n        _;\n    }\n\n    modifier isContractorAddressValid() {\n        require(contractor != address(0), \"Contractor address should not be the zero address\");\n        _;\n    }\n\n    modifier isFreelancerAddressValid() {\n        require(freelancer != address(0), \"Freelancer address should not be the zero address\");\n        _;\n    }\n\n    function closeJob(bool conditionsMet) public payable onlyOwner {\n        require(state_started == true, \"No funds locked for user\");\n        require(address(this).balance > amount, \"Insufficient locked funds\");\n        if(conditionsMet){\n            payable(freelancer).transfer(amount);\n        }else{\n            payable(contractor).transfer(amount);\n        }\n        amount = 0;\n        state_started = false;\n    }\n}\n\n",
  "sourcePath": "/home/christian/git/ETHMunich/Goojob/solidity/contracts/Goojob.sol",
  "compiler": {
    "name": "solc",
    "version": "0.8.4+commit.c7e474f2.Emscripten.clang"
  },
  "schemaVersion": "3.4.15",
  "updatedAt": "2023-08-12T18:06:45.679Z",
  "networkType": "ethereum",
  "devdoc": {
    "author": "prunkton.eth",
    "custom:experimental": "My very first smart contract project",
    "details": "this contract is perfectly fine ;)",
    "kind": "dev",
    "methods": {
      "owner()": {
        "details": "Returns the address of the current owner."
      },
      "renounceOwnership()": {
        "details": "Leaves the contract without owner. It will not be possible to call `onlyOwner` functions. Can only be called by the current owner. NOTE: Renouncing ownership will leave the contract without an owner, thereby disabling any functionality that is only available to the owner."
      },
      "transferOwnership(address)": {
        "details": "Transfers ownership of the contract to a new account (`newOwner`). Can only be called by the current owner."
      }
    },
    "title": "GooJob, an EVM based freelancer<->contractor platform",
    "version": 1
  },
  "userdoc": {
    "kind": "user",
    "methods": {},
    "notice": "This is a ETHMunich 2023 hackathon project",
    "version": 1
  }
}