{
  "contractName": "Goojob",
  "abi": [
    {
      "inputs": [
        {
          "internalType": "address",
          "name": "_tokenAddress",
          "type": "address"
        }
      ],
      "stateMutability": "nonpayable",
      "type": "constructor"
    },
    {
      "anonymous": false,
      "inputs": [
        {
          "indexed": true,
          "internalType": "address",
          "name": "previousOwner",
          "type": "address"
        },
        {
          "indexed": true,
          "internalType": "address",
          "name": "newOwner",
          "type": "address"
        }
      ],
      "name": "OwnershipTransferred",
      "type": "event"
    },
    {
      "inputs": [],
      "name": "amount",
      "outputs": [
        {
          "internalType": "uint256",
          "name": "",
          "type": "uint256"
        }
      ],
      "stateMutability": "view",
      "type": "function",
      "constant": true
    },
    {
      "inputs": [],
      "name": "contractor",
      "outputs": [
        {
          "internalType": "address payable",
          "name": "",
          "type": "address"
        }
      ],
      "stateMutability": "view",
      "type": "function",
      "constant": true
    },
    {
      "inputs": [],
      "name": "freelancer",
      "outputs": [
        {
          "internalType": "address payable",
          "name": "",
          "type": "address"
        }
      ],
      "stateMutability": "view",
      "type": "function",
      "constant": true
    },
    {
      "inputs": [
        {
          "internalType": "address",
          "name": "",
          "type": "address"
        }
      ],
      "name": "frozenBalances",
      "outputs": [
        {
          "internalType": "uint256",
          "name": "",
          "type": "uint256"
        }
      ],
      "stateMutability": "view",
      "type": "function",
      "constant": true
    },
    {
      "inputs": [],
      "name": "fundsAreFrozen",
      "outputs": [
        {
          "internalType": "bool",
          "name": "",
          "type": "bool"
        }
      ],
      "stateMutability": "view",
      "type": "function",
      "constant": true
    },
    {
      "inputs": [],
      "name": "owner",
      "outputs": [
        {
          "internalType": "address",
          "name": "",
          "type": "address"
        }
      ],
      "stateMutability": "view",
      "type": "function",
      "constant": true
    },
    {
      "inputs": [],
      "name": "renounceOwnership",
      "outputs": [],
      "stateMutability": "nonpayable",
      "type": "function"
    },
    {
      "inputs": [],
      "name": "state_started",
      "outputs": [
        {
          "internalType": "bool",
          "name": "",
          "type": "bool"
        }
      ],
      "stateMutability": "view",
      "type": "function",
      "constant": true
    },
    {
      "inputs": [],
      "name": "token",
      "outputs": [
        {
          "internalType": "contract ERC20Interface",
          "name": "",
          "type": "address"
        }
      ],
      "stateMutability": "view",
      "type": "function",
      "constant": true
    },
    {
      "inputs": [
        {
          "internalType": "address",
          "name": "newOwner",
          "type": "address"
        }
      ],
      "name": "transferOwnership",
      "outputs": [],
      "stateMutability": "nonpayable",
      "type": "function"
    },
    {
      "inputs": [],
      "name": "toggleFreeze",
      "outputs": [],
      "stateMutability": "nonpayable",
      "type": "function"
    },
    {
      "inputs": [],
      "name": "freezeTokens",
      "outputs": [],
      "stateMutability": "nonpayable",
      "type": "function"
    },
    {
      "inputs": [
        {
          "internalType": "address payable",
          "name": "_contractor",
          "type": "address"
        }
      ],
      "name": "setContractor",
      "outputs": [],
      "stateMutability": "nonpayable",
      "type": "function"
    },
    {
      "inputs": [],
      "name": "getState_started",
      "outputs": [
        {
          "internalType": "bool",
          "name": "",
          "type": "bool"
        }
      ],
      "stateMutability": "view",
      "type": "function",
      "constant": true
    },
    {
      "inputs": [
        {
          "internalType": "address payable",
          "name": "_freelancer",
          "type": "address"
        }
      ],
      "name": "setFreelancerAccess",
      "outputs": [],
      "stateMutability": "nonpayable",
      "type": "function"
    },
    {
      "inputs": [
        {
          "internalType": "uint256",
          "name": "_amount",
          "type": "uint256"
        }
      ],
      "name": "setupJob",
      "outputs": [],
      "stateMutability": "nonpayable",
      "type": "function"
    },
    {
      "inputs": [
        {
          "internalType": "bool",
          "name": "accept",
          "type": "bool"
        }
      ],
      "name": "acceptJob",
      "outputs": [],
      "stateMutability": "nonpayable",
      "type": "function"
    },
    {
      "inputs": [
        {
          "internalType": "bool",
          "name": "conditionsMet",
          "type": "bool"
        }
      ],
      "name": "closeJob",
      "outputs": [],
      "stateMutability": "payable",
      "type": "function",
      "payable": true
    }
  ],
  "bytecode": "0x60806040526001600660006101000a81548160ff0219169083151502179055503480156200002c57600080fd5b5060405162001dd738038062001dd783398181016040528101906200005291906200019d565b6200007262000066620000ba60201b60201c565b620000c260201b60201c565b80600460016101000a81548173ffffffffffffffffffffffffffffffffffffffff021916908373ffffffffffffffffffffffffffffffffffffffff1602179055505062000217565b600033905090565b60008060009054906101000a900473ffffffffffffffffffffffffffffffffffffffff169050816000806101000a81548173ffffffffffffffffffffffffffffffffffffffff021916908373ffffffffffffffffffffffffffffffffffffffff1602179055508173ffffffffffffffffffffffffffffffffffffffff168173ffffffffffffffffffffffffffffffffffffffff167f8be0079c531659141344cd1fd0a4f28419497f9722a3daafe3b4186f6b6457e060405160405180910390a35050565b6000815190506200019781620001fd565b92915050565b600060208284031215620001b057600080fd5b6000620001c08482850162000186565b91505092915050565b6000620001d682620001dd565b9050919050565b600073ffffffffffffffffffffffffffffffffffffffff82169050919050565b6200020881620001c9565b81146200021457600080fd5b50565b611bb080620002276000396000f3fe6080604052600436106101095760003560e01c80638da5cb5b11610095578063ca51c7b511610064578063ca51c7b514610310578063da9f48751461033b578063f2fde38b14610352578063fbfd20451461037b578063fc0c546a146103a657610109565b80638da5cb5b14610273578063a37dda2c1461029e578063aa8c217c146102c9578063c5ddfdef146102f457610109565b80635adc865d116100dc5780635adc865d146101b45780636bdd02dd146101dd578063715018a6146102085780637842c2321461021f5780637c6cd4041461024a57610109565b80630ad9e7bf1461010e5780632201434d1461014b57806334fc2591146101745780634aac45251461018b575b600080fd5b34801561011a57600080fd5b50610135600480360381019061013091906112b1565b6103d1565b6040516101429190611779565b60405180910390f35b34801561015757600080fd5b50610172600480360381019061016d91906112da565b6103e9565b005b34801561018057600080fd5b50610189610537565b005b34801561019757600080fd5b506101b260048036038101906101ad91906112da565b61056b565b005b3480156101c057600080fd5b506101db60048036038101906101d69190611303565b610627565b005b3480156101e957600080fd5b506101f261070c565b6040516101ff9190611603565b60405180910390f35b34801561021457600080fd5b5061021d610723565b005b34801561022b57600080fd5b50610234610737565b6040516102419190611603565b60405180910390f35b34801561025657600080fd5b50610271600480360381019061026c9190611355565b61074a565b005b34801561027f57600080fd5b50610288610880565b6040516102959190611536565b60405180910390f35b3480156102aa57600080fd5b506102b36108a9565b6040516102c09190611551565b60405180910390f35b3480156102d557600080fd5b506102de6108cf565b6040516102eb9190611779565b60405180910390f35b61030e60048036038101906103099190611303565b6108d5565b005b34801561031c57600080fd5b50610325610a7f565b6040516103329190611603565b60405180910390f35b34801561034757600080fd5b50610350610a92565b005b34801561035e57600080fd5b50610379600480360381019061037491906112b1565b610c72565b005b34801561038757600080fd5b50610390610cf6565b60405161039d9190611551565b60405180910390f35b3480156103b257600080fd5b506103bb610d1c565b6040516103c8919061161e565b60405180910390f35b60056020528060005260406000206000915090505481565b600073ffffffffffffffffffffffffffffffffffffffff16600160009054906101000a900473ffffffffffffffffffffffffffffffffffffffff1673ffffffffffffffffffffffffffffffffffffffff16141561047b576040517f08c379a000000000000000000000000000000000000000000000000000000000815260040161047290611639565b60405180910390fd5b610483610d42565b600073ffffffffffffffffffffffffffffffffffffffff168173ffffffffffffffffffffffffffffffffffffffff1614156104f3576040517f08c379a00000000000000000000000000000000000000000000000000000000081526004016104ea90611759565b60405180910390fd5b80600260006101000a81548173ffffffffffffffffffffffffffffffffffffffff021916908373ffffffffffffffffffffffffffffffffffffffff16021790555050565b61053f610d42565b600660009054906101000a900460ff1615600660006101000a81548160ff021916908315150217905550565b610573610d42565b600073ffffffffffffffffffffffffffffffffffffffff168173ffffffffffffffffffffffffffffffffffffffff1614156105e3576040517f08c379a00000000000000000000000000000000000000000000000000000000081526004016105da90611639565b60405180910390fd5b80600160006101000a81548173ffffffffffffffffffffffffffffffffffffffff021916908373ffffffffffffffffffffffffffffffffffffffff16021790555050565b600260009054906101000a900473ffffffffffffffffffffffffffffffffffffffff1673ffffffffffffffffffffffffffffffffffffffff163373ffffffffffffffffffffffffffffffffffffffff16146106b7576040517f08c379a00000000000000000000000000000000000000000000000000000000081526004016106ae90611739565b60405180910390fd5b6106bf610dc0565b80156106ed576106cd611044565b6001600460006101000a81548160ff021916908315150217905550610709565b6000600460006101000a81548160ff0219169083151502179055505b50565b6000600460009054906101000a900460ff16905090565b61072b610d42565b610735600061117c565b565b600460009054906101000a900460ff1681565b600073ffffffffffffffffffffffffffffffffffffffff16600160009054906101000a900473ffffffffffffffffffffffffffffffffffffffff1673ffffffffffffffffffffffffffffffffffffffff1614156107dc576040517f08c379a00000000000000000000000000000000000000000000000000000000081526004016107d390611639565b60405180910390fd5b600073ffffffffffffffffffffffffffffffffffffffff16600260009054906101000a900473ffffffffffffffffffffffffffffffffffffffff1673ffffffffffffffffffffffffffffffffffffffff16141561086e576040517f08c379a000000000000000000000000000000000000000000000000000000000815260040161086590611759565b60405180910390fd5b610876610d42565b8060038190555050565b60008060009054906101000a900473ffffffffffffffffffffffffffffffffffffffff16905090565b600260009054906101000a900473ffffffffffffffffffffffffffffffffffffffff1681565b60035481565b6108dd610d42565b60011515600460009054906101000a900460ff16151514610933576040517f08c379a000000000000000000000000000000000000000000000000000000000815260040161092a90611719565b60405180910390fd5b6003544711610977576040517f08c379a000000000000000000000000000000000000000000000000000000000815260040161096e906116b9565b60405180910390fd5b80156109ed57600260009054906101000a900473ffffffffffffffffffffffffffffffffffffffff1673ffffffffffffffffffffffffffffffffffffffff166108fc6003549081150290604051600060405180830381858888f193505050501580156109e7573d6000803e3d6000fd5b50610a59565b600160009054906101000a900473ffffffffffffffffffffffffffffffffffffffff1673ffffffffffffffffffffffffffffffffffffffff166108fc6003549081150290604051600060405180830381858888f19350505050158015610a57573d6000803e3d6000fd5b505b60006003819055506000600460006101000a81548160ff02191690831515021790555050565b600660009054906101000a900460ff1681565b600660009054906101000a900460ff1615610ae2576040517f08c379a0000000000000000000000000000000000000000000000000000000008152600401610ad990611699565b60405180910390fd5b600460019054906101000a900473ffffffffffffffffffffffffffffffffffffffff1673ffffffffffffffffffffffffffffffffffffffff166323b872dd600160009054906101000a900473ffffffffffffffffffffffffffffffffffffffff16306003546040518463ffffffff1660e01b8152600401610b65939291906115a3565b602060405180830381600087803b158015610b7f57600080fd5b505af1158015610b93573d6000803e3d6000fd5b505050506040513d601f19601f82011682018060405250810190610bb7919061132c565b610bf6576040517f08c379a0000000000000000000000000000000000000000000000000000000008152600401610bed90611679565b60405180910390fd5b60035460056000600160009054906101000a900473ffffffffffffffffffffffffffffffffffffffff1673ffffffffffffffffffffffffffffffffffffffff1673ffffffffffffffffffffffffffffffffffffffff1681526020019081526020016000206000828254610c6991906117a5565b92505081905550565b610c7a610d42565b600073ffffffffffffffffffffffffffffffffffffffff168173ffffffffffffffffffffffffffffffffffffffff161415610cea576040517f08c379a0000000000000000000000000000000000000000000000000000000008152600401610ce190611659565b60405180910390fd5b610cf38161117c565b50565b600160009054906101000a900473ffffffffffffffffffffffffffffffffffffffff1681565b600460019054906101000a900473ffffffffffffffffffffffffffffffffffffffff1681565b610d4a611240565b73ffffffffffffffffffffffffffffffffffffffff16610d68610880565b73ffffffffffffffffffffffffffffffffffffffff1614610dbe576040517f08c379a0000000000000000000000000000000000000000000000000000000008152600401610db5906116d9565b60405180910390fd5b565b600660009054906101000a900460ff1615610e10576040517f08c379a0000000000000000000000000000000000000000000000000000000008152600401610e0790611699565b60405180910390fd5b60035460056000600160009054906101000a900473ffffffffffffffffffffffffffffffffffffffff1673ffffffffffffffffffffffffffffffffffffffff1673ffffffffffffffffffffffffffffffffffffffff168152602001908152602001600020541015610eb6576040517f08c379a0000000000000000000000000000000000000000000000000000000008152600401610ead906116f9565b60405180910390fd5b60035460056000600160009054906101000a900473ffffffffffffffffffffffffffffffffffffffff1673ffffffffffffffffffffffffffffffffffffffff1673ffffffffffffffffffffffffffffffffffffffff1681526020019081526020016000206000828254610f2991906117fb565b92505081905550600460019054906101000a900473ffffffffffffffffffffffffffffffffffffffff1673ffffffffffffffffffffffffffffffffffffffff1663a9059cbb600160009054906101000a900473ffffffffffffffffffffffffffffffffffffffff166003546040518363ffffffff1660e01b8152600401610fb19291906115da565b602060405180830381600087803b158015610fcb57600080fd5b505af1158015610fdf573d6000803e3d6000fd5b505050506040513d601f19601f82011682018060405250810190611003919061132c565b611042576040517f08c379a000000000000000000000000000000000000000000000000000000000815260040161103990611679565b60405180910390fd5b565b600460019054906101000a900473ffffffffffffffffffffffffffffffffffffffff1673ffffffffffffffffffffffffffffffffffffffff166323b872dd600160009054906101000a900473ffffffffffffffffffffffffffffffffffffffff16600260009054906101000a900473ffffffffffffffffffffffffffffffffffffffff166003546040518463ffffffff1660e01b81526004016110e99392919061156c565b602060405180830381600087803b15801561110357600080fd5b505af1158015611117573d6000803e3d6000fd5b505050506040513d601f19601f8201168201806040525081019061113b919061132c565b61117a576040517f08c379a000000000000000000000000000000000000000000000000000000000815260040161117190611679565b60405180910390fd5b565b60008060009054906101000a900473ffffffffffffffffffffffffffffffffffffffff169050816000806101000a81548173ffffffffffffffffffffffffffffffffffffffff021916908373ffffffffffffffffffffffffffffffffffffffff1602179055508173ffffffffffffffffffffffffffffffffffffffff168173ffffffffffffffffffffffffffffffffffffffff167f8be0079c531659141344cd1fd0a4f28419497f9722a3daafe3b4186f6b6457e060405160405180910390a35050565b600033905090565b60008135905061125781611b1e565b92915050565b60008135905061126c81611b35565b92915050565b60008135905061128181611b4c565b92915050565b60008151905061129681611b4c565b92915050565b6000813590506112ab81611b63565b92915050565b6000602082840312156112c357600080fd5b60006112d184828501611248565b91505092915050565b6000602082840312156112ec57600080fd5b60006112fa8482850161125d565b91505092915050565b60006020828403121561131557600080fd5b600061132384828501611272565b91505092915050565b60006020828403121561133e57600080fd5b600061134c84828501611287565b91505092915050565b60006020828403121561136757600080fd5b60006113758482850161129c565b91505092915050565b61138781611889565b82525050565b61139681611841565b82525050565b6113a58161182f565b82525050565b6113b481611853565b82525050565b6113c38161189b565b82525050565b60006113d6603183611794565b91506113e182611912565b604082019050919050565b60006113f9602683611794565b915061140482611961565b604082019050919050565b600061141c600f83611794565b9150611427826119b0565b602082019050919050565b600061143f601a83611794565b915061144a826119d9565b602082019050919050565b6000611462601983611794565b915061146d82611a02565b602082019050919050565b6000611485602083611794565b915061149082611a2b565b602082019050919050565b60006114a8601b83611794565b91506114b382611a54565b602082019050919050565b60006114cb601883611794565b91506114d682611a7d565b602082019050919050565b60006114ee600e83611794565b91506114f982611aa6565b602082019050919050565b6000611511603183611794565b915061151c82611acf565b604082019050919050565b6115308161187f565b82525050565b600060208201905061154b600083018461139c565b92915050565b6000602082019050611566600083018461138d565b92915050565b6000606082019050611581600083018661137e565b61158e602083018561137e565b61159b6040830184611527565b949350505050565b60006060820190506115b8600083018661137e565b6115c5602083018561139c565b6115d26040830184611527565b949350505050565b60006040820190506115ef600083018561137e565b6115fc6020830184611527565b9392505050565b600060208201905061161860008301846113ab565b92915050565b600060208201905061163360008301846113ba565b92915050565b60006020820190508181036000830152611652816113c9565b9050919050565b60006020820190508181036000830152611672816113ec565b9050919050565b600060208201905081810360008301526116928161140f565b9050919050565b600060208201905081810360008301526116b281611432565b9050919050565b600060208201905081810360008301526116d281611455565b9050919050565b600060208201905081810360008301526116f281611478565b9050919050565b600060208201905081810360008301526117128161149b565b9050919050565b60006020820190508181036000830152611732816114be565b9050919050565b60006020820190508181036000830152611752816114e1565b9050919050565b6000602082019050818103600083015261177281611504565b9050919050565b600060208201905061178e6000830184611527565b92915050565b600082825260208201905092915050565b60006117b08261187f565b91506117bb8361187f565b9250827fffffffffffffffffffffffffffffffffffffffffffffffffffffffffffffffff038211156117f0576117ef6118e3565b5b828201905092915050565b60006118068261187f565b91506118118361187f565b925082821015611824576118236118e3565b5b828203905092915050565b600061183a8261185f565b9050919050565b600061184c8261185f565b9050919050565b60008115159050919050565b600073ffffffffffffffffffffffffffffffffffffffff82169050919050565b6000819050919050565b6000611894826118bf565b9050919050565b60006118a6826118ad565b9050919050565b60006118b88261185f565b9050919050565b60006118ca826118d1565b9050919050565b60006118dc8261185f565b9050919050565b7f4e487b7100000000000000000000000000000000000000000000000000000000600052601160045260246000fd5b7f436f6e74726163746f7220616464726573732073686f756c64206e6f7420626560008201527f20746865207a65726f2061646472657373000000000000000000000000000000602082015250565b7f4f776e61626c653a206e6577206f776e657220697320746865207a65726f206160008201527f6464726573730000000000000000000000000000000000000000000000000000602082015250565b7f5472616e73666572206661696c65640000000000000000000000000000000000600082015250565b7f46756e6473206172652063757272656e746c792066726f7a656e000000000000600082015250565b7f496e73756666696369656e74206c6f636b65642066756e647300000000000000600082015250565b7f4f776e61626c653a2063616c6c6572206973206e6f7420746865206f776e6572600082015250565b7f496e73756666696369656e742066726f7a656e2062616c616e63650000000000600082015250565b7f4e6f2066756e6473206c6f636b656420666f7220757365720000000000000000600082015250565b7f4e6f7420617574686f72697a6564000000000000000000000000000000000000600082015250565b7f467265656c616e63657220616464726573732073686f756c64206e6f7420626560008201527f20746865207a65726f2061646472657373000000000000000000000000000000602082015250565b611b278161182f565b8114611b3257600080fd5b50565b611b3e81611841565b8114611b4957600080fd5b50565b611b5581611853565b8114611b6057600080fd5b50565b611b6c8161187f565b8114611b7757600080fd5b5056fea2646970667358221220a2c9ff64923d5fb2f5d7e2fb41c3642b8165281078dfdae0a5646d20eae9990a64736f6c63430008040033",
  "immutableReferences": {},
  "source": "// SPDX-License-Identifier: MIT\npragma solidity ^0.8.4;\n\nimport \"@openzeppelin/contracts/access/Ownable.sol\";\nimport \"@openzeppelin/contracts/token/ERC20/IERC20.sol\";\n\ninterface ERC20Interface {\n    function transferFrom(address from, address to, uint256 value) external returns (bool);\n    function transfer(address to, uint256 value) external returns (bool);\n}\n\n/// @title GooJob, an EVM based freelancer<->contractor platform\n/// @author prunkton.eth\n/// @notice This is a ETHMunich 2023 hackathon project\n/// @dev this contract is perfectly fine ;)\n/// @custom:experimental My very first smart contract project\ncontract Goojob is Ownable {\n    address payable public contractor;\n    address payable public freelancer;\n\n    uint256 public amount; // the allowance the SC will freeze up from the contractor until the working contract is resolved\n    bool public state_started;  // if true, all parties agree on conditions\n\n    //address public wETH = 0xf1f0df2841599b21abc4725fbe17fa3b945bad57;\n\n    //###\n    ERC20Interface public token;\n    mapping(address => uint256) public frozenBalances;\n    bool public fundsAreFrozen = true; // default state\n\n    constructor(address _tokenAddress) {\n        token = ERC20Interface(_tokenAddress);\n    }\n\n\n    function toggleFreeze() external onlyOwner {\n        fundsAreFrozen = !fundsAreFrozen;\n    }\n\n    function freezeTokens() external {\n        require(!fundsAreFrozen, \"Funds are currently frozen\");\n        require(token.transferFrom(contractor, address(this), amount), \"Transfer failed\");\n        frozenBalances[contractor] += amount;\n    }\n\n    function unlockTokensForContractor() private {\n        require(!fundsAreFrozen, \"Funds are currently frozen\");\n        require(frozenBalances[contractor] >= amount, \"Insufficient frozen balance\");\n        \n        frozenBalances[contractor] -= amount;\n        require(token.transfer(contractor, amount), \"Transfer failed\");\n    }\n\n\n    //#####\n\n    // Set contractor\n    // is this redundant with constructor?\n    function setContractor(address payable _contractor) public onlyOwner {\n        require(_contractor != address(0), \"Contractor address should not be the zero address\");\n        contractor = _contractor;\n    }\n\n    function getState_started() public view returns(bool) {\n        return state_started;\n    }\n\n    // The Contractor has to accept the freelancer\n    function setFreelancerAccess(address payable _freelancer) public isContractorAddressValid onlyOwner {\n        require(_freelancer != address(0), \"Freelancer address should not be the zero address\");\n        freelancer = _freelancer;\n    }\n\n    function transferToFreelancer() private {\n        require(token.transferFrom(contractor,freelancer, amount), \"Transfer failed\");\n    }\n\n    // the contractor is setting up the job\n    // the contractor has to define the amount that should get locked up\n    function setupJob(uint256 _amount) public isContractorAddressValid isFreelancerAddressValid onlyOwner{\n        amount = _amount; //we don't check if the amount is available since we will lock it up at a later point\n    }\n\n    // Restricted function\n    // only accessable by the freelancer\n    // it is not possible to activeley freeze or deposit funds from someones addres\n    // so we need to wait for the contractor to deposit the fund on the SC\n    function acceptJob(bool accept) public onlyFreelancerAllowed {\n        unlockTokensForContractor(); //we need to unlock it in both cases, to withdraw it or to give it back\n        if(accept) {\n            transferToFreelancer();\n            //require(address(this).balance > amount, \"Sent value must be greater than 0\");\n            state_started = true;\n        } else{\n            state_started = false; // we are not able to track this event? \n        }\n    }\n\n    // Modifier to restrict function access\n    modifier onlyFreelancerAllowed() {\n        require(msg.sender == freelancer, \"Not authorized\");\n        _;\n    }\n\n    modifier isContractorAddressValid() {\n        require(contractor != address(0), \"Contractor address should not be the zero address\");\n        _;\n    }\n\n    modifier isFreelancerAddressValid() {\n        require(freelancer != address(0), \"Freelancer address should not be the zero address\");\n        _;\n    }\n\n    function closeJob(bool conditionsMet) public payable onlyOwner {\n        require(state_started == true, \"No funds locked for user\");\n        require(address(this).balance > amount, \"Insufficient locked funds\");\n        if(conditionsMet){\n            payable(freelancer).transfer(amount);\n        }else{\n            payable(contractor).transfer(amount);\n        }\n        amount = 0;\n        state_started = false;\n    }\n}\n\n",
  "sourcePath": "/home/christian/git/ETHMunich/Goojob/solidity/contracts/Goojob.sol",
  "compiler": {
    "name": "solc",
    "version": "0.8.4+commit.c7e474f2.Emscripten.clang"
  },
  "schemaVersion": "3.4.15",
  "updatedAt": "2023-08-12T17:24:40.038Z",
  "networkType": "ethereum",
  "devdoc": {
    "author": "prunkton.eth",
    "custom:experimental": "My very first smart contract project",
    "details": "this contract is perfectly fine ;)",
    "kind": "dev",
    "methods": {
      "owner()": {
        "details": "Returns the address of the current owner."
      },
      "renounceOwnership()": {
        "details": "Leaves the contract without owner. It will not be possible to call `onlyOwner` functions. Can only be called by the current owner. NOTE: Renouncing ownership will leave the contract without an owner, thereby disabling any functionality that is only available to the owner."
      },
      "transferOwnership(address)": {
        "details": "Transfers ownership of the contract to a new account (`newOwner`). Can only be called by the current owner."
      }
    },
    "title": "GooJob, an EVM based freelancer<->contractor platform",
    "version": 1
  },
  "userdoc": {
    "kind": "user",
    "methods": {},
    "notice": "This is a ETHMunich 2023 hackathon project",
    "version": 1
  }
}