{
  "contractName": "Goojob",
  "abi": [
    {
      "inputs": [
        {
          "internalType": "address",
          "name": "_tokenAddress",
          "type": "address"
        }
      ],
      "stateMutability": "nonpayable",
      "type": "constructor"
    },
    {
      "anonymous": false,
      "inputs": [
        {
          "indexed": true,
          "internalType": "address",
          "name": "previousOwner",
          "type": "address"
        },
        {
          "indexed": true,
          "internalType": "address",
          "name": "newOwner",
          "type": "address"
        }
      ],
      "name": "OwnershipTransferred",
      "type": "event"
    },
    {
      "inputs": [],
      "name": "contractor",
      "outputs": [
        {
          "internalType": "address payable",
          "name": "",
          "type": "address"
        }
      ],
      "stateMutability": "view",
      "type": "function",
      "constant": true
    },
    {
      "inputs": [],
      "name": "freelancer",
      "outputs": [
        {
          "internalType": "address payable",
          "name": "",
          "type": "address"
        }
      ],
      "stateMutability": "view",
      "type": "function",
      "constant": true
    },
    {
      "inputs": [
        {
          "internalType": "address",
          "name": "",
          "type": "address"
        }
      ],
      "name": "frozenFund",
      "outputs": [
        {
          "internalType": "uint256",
          "name": "",
          "type": "uint256"
        }
      ],
      "stateMutability": "view",
      "type": "function",
      "constant": true
    },
    {
      "inputs": [],
      "name": "owner",
      "outputs": [
        {
          "internalType": "address",
          "name": "",
          "type": "address"
        }
      ],
      "stateMutability": "view",
      "type": "function",
      "constant": true
    },
    {
      "inputs": [],
      "name": "renounceOwnership",
      "outputs": [],
      "stateMutability": "nonpayable",
      "type": "function"
    },
    {
      "inputs": [],
      "name": "token",
      "outputs": [
        {
          "internalType": "contract ERC20Interface",
          "name": "",
          "type": "address"
        }
      ],
      "stateMutability": "view",
      "type": "function",
      "constant": true
    },
    {
      "inputs": [
        {
          "internalType": "address",
          "name": "newOwner",
          "type": "address"
        }
      ],
      "name": "transferOwnership",
      "outputs": [],
      "stateMutability": "nonpayable",
      "type": "function"
    },
    {
      "inputs": [],
      "name": "isFundFrozen",
      "outputs": [
        {
          "internalType": "bool",
          "name": "",
          "type": "bool"
        }
      ],
      "stateMutability": "view",
      "type": "function",
      "constant": true
    },
    {
      "inputs": [
        {
          "internalType": "address",
          "name": "addr",
          "type": "address"
        },
        {
          "internalType": "uint256",
          "name": "_amount",
          "type": "uint256"
        }
      ],
      "name": "hasMinimumTokens",
      "outputs": [
        {
          "internalType": "bool",
          "name": "",
          "type": "bool"
        }
      ],
      "stateMutability": "view",
      "type": "function",
      "constant": true
    },
    {
      "inputs": [],
      "name": "getContractorTokenAmount",
      "outputs": [
        {
          "internalType": "uint256",
          "name": "",
          "type": "uint256"
        }
      ],
      "stateMutability": "view",
      "type": "function",
      "constant": true
    },
    {
      "inputs": [],
      "name": "getFreelancerTokenAmount",
      "outputs": [
        {
          "internalType": "uint256",
          "name": "",
          "type": "uint256"
        }
      ],
      "stateMutability": "view",
      "type": "function",
      "constant": true
    },
    {
      "inputs": [
        {
          "internalType": "address payable",
          "name": "_contractor",
          "type": "address"
        }
      ],
      "name": "setContractor",
      "outputs": [],
      "stateMutability": "nonpayable",
      "type": "function"
    },
    {
      "inputs": [],
      "name": "getContractor",
      "outputs": [
        {
          "internalType": "address",
          "name": "",
          "type": "address"
        }
      ],
      "stateMutability": "view",
      "type": "function",
      "constant": true
    },
    {
      "inputs": [],
      "name": "getWorkPhase",
      "outputs": [
        {
          "internalType": "bool",
          "name": "",
          "type": "bool"
        }
      ],
      "stateMutability": "view",
      "type": "function",
      "constant": true
    },
    {
      "inputs": [
        {
          "internalType": "address payable",
          "name": "_freelancer",
          "type": "address"
        }
      ],
      "name": "setFreelancerAccess",
      "outputs": [],
      "stateMutability": "nonpayable",
      "type": "function"
    },
    {
      "inputs": [
        {
          "internalType": "uint256",
          "name": "_amount",
          "type": "uint256"
        }
      ],
      "name": "setupJob",
      "outputs": [],
      "stateMutability": "nonpayable",
      "type": "function"
    },
    {
      "inputs": [],
      "name": "getAmount",
      "outputs": [
        {
          "internalType": "uint256",
          "name": "",
          "type": "uint256"
        }
      ],
      "stateMutability": "view",
      "type": "function",
      "constant": true
    },
    {
      "inputs": [
        {
          "internalType": "bool",
          "name": "accept",
          "type": "bool"
        }
      ],
      "name": "acceptJob",
      "outputs": [],
      "stateMutability": "nonpayable",
      "type": "function"
    },
    {
      "inputs": [
        {
          "internalType": "bool",
          "name": "conditionsMet",
          "type": "bool"
        }
      ],
      "name": "closeJob",
      "outputs": [],
      "stateMutability": "payable",
      "type": "function",
      "payable": true
    }
  ],
  "bytecode": "0x60806040526000600660006101000a81548160ff0219169083151502179055503480156200002c57600080fd5b5060405162001e8038038062001e8083398181016040528101906200005291906200019d565b6200007262000066620000ba60201b60201c565b620000c260201b60201c565b80600460016101000a81548173ffffffffffffffffffffffffffffffffffffffff021916908373ffffffffffffffffffffffffffffffffffffffff1602179055505062000217565b600033905090565b60008060009054906101000a900473ffffffffffffffffffffffffffffffffffffffff169050816000806101000a81548173ffffffffffffffffffffffffffffffffffffffff021916908373ffffffffffffffffffffffffffffffffffffffff1602179055508173ffffffffffffffffffffffffffffffffffffffff168173ffffffffffffffffffffffffffffffffffffffff167f8be0079c531659141344cd1fd0a4f28419497f9722a3daafe3b4186f6b6457e060405160405180910390a35050565b6000815190506200019781620001fd565b92915050565b600060208284031215620001b057600080fd5b6000620001c08482850162000186565b91505092915050565b6000620001d682620001dd565b9050919050565b600073ffffffffffffffffffffffffffffffffffffffff82169050919050565b6200020881620001c9565b81146200021457600080fd5b50565b611c5980620002276000396000f3fe6080604052600436106101145760003560e01c80638da5cb5b116100a0578063d2d7318211610064578063d2d731821461035a578063d321fe2914610397578063f2fde38b146103c2578063fbfd2045146103eb578063fc0c546a1461041657610114565b80638da5cb5b14610292578063a28caf3e146102bd578063a37dda2c146102e8578063b6cb405b14610313578063c5ddfdef1461033e57610114565b80634aac4525116100e75780634aac4525146101c35780635adc865d146101ec578063715018a6146102155780637c6cd4041461022c578063835977d71461025557610114565b8063037e38cc146101195780632201434d146101445780632208dcbd1461016d5780633d1b8c8a14610198575b600080fd5b34801561012557600080fd5b5061012e610441565b60405161013b91906116ac565b60405180910390f35b34801561015057600080fd5b5061016b60048036038101906101669190611371565b610458565b005b34801561017957600080fd5b506101826105a6565b60405161018f9190611822565b60405180910390f35b3480156101a457600080fd5b506101ad61067a565b6040516101ba91906116ac565b60405180910390f35b3480156101cf57600080fd5b506101ea60048036038101906101e59190611371565b610691565b005b3480156101f857600080fd5b50610213600480360381019061020e91906113d6565b61074d565b005b34801561022157600080fd5b5061022a610816565b005b34801561023857600080fd5b50610253600480360381019061024e9190611428565b61082a565b005b34801561026157600080fd5b5061027c6004803603810190610277919061139a565b610960565b60405161028991906116ac565b60405180910390f35b34801561029e57600080fd5b506102a7610a18565b6040516102b49190611632565b60405180910390f35b3480156102c957600080fd5b506102d2610a41565b6040516102df9190611822565b60405180910390f35b3480156102f457600080fd5b506102fd610b15565b60405161030a9190611668565b60405180910390f35b34801561031f57600080fd5b50610328610b3b565b6040516103359190611632565b60405180910390f35b610358600480360381019061035391906113d6565b610b65565b005b34801561036657600080fd5b50610381600480360381019061037c9190611348565b610d08565b60405161038e9190611822565b60405180910390f35b3480156103a357600080fd5b506103ac610d20565b6040516103b99190611822565b60405180910390f35b3480156103ce57600080fd5b506103e960048036038101906103e49190611348565b610d2a565b005b3480156103f757600080fd5b50610400610dae565b60405161040d9190611668565b60405180910390f35b34801561042257600080fd5b5061042b610dd4565b60405161043891906116c7565b60405180910390f35b6000600660009054906101000a900460ff16905090565b600073ffffffffffffffffffffffffffffffffffffffff16600160009054906101000a900473ffffffffffffffffffffffffffffffffffffffff1673ffffffffffffffffffffffffffffffffffffffff1614156104ea576040517f08c379a00000000000000000000000000000000000000000000000000000000081526004016104e1906116e2565b60405180910390fd5b6104f2610dfa565b600073ffffffffffffffffffffffffffffffffffffffff168173ffffffffffffffffffffffffffffffffffffffff161415610562576040517f08c379a000000000000000000000000000000000000000000000000000000000815260040161055990611802565b60405180910390fd5b80600260006101000a81548173ffffffffffffffffffffffffffffffffffffffff021916908373ffffffffffffffffffffffffffffffffffffffff16021790555050565b6000600460019054906101000a900473ffffffffffffffffffffffffffffffffffffffff1673ffffffffffffffffffffffffffffffffffffffff166370a08231600260009054906101000a900473ffffffffffffffffffffffffffffffffffffffff166040518263ffffffff1660e01b8152600401610625919061164d565b60206040518083038186803b15801561063d57600080fd5b505afa158015610651573d6000803e3d6000fd5b505050506040513d601f19601f820116820180604052508101906106759190611451565b905090565b6000600460009054906101000a900460ff16905090565b610699610dfa565b600073ffffffffffffffffffffffffffffffffffffffff168173ffffffffffffffffffffffffffffffffffffffff161415610709576040517f08c379a0000000000000000000000000000000000000000000000000000000008152600401610700906116e2565b60405180910390fd5b80600160006101000a81548173ffffffffffffffffffffffffffffffffffffffff021916908373ffffffffffffffffffffffffffffffffffffffff16021790555050565b600260009054906101000a900473ffffffffffffffffffffffffffffffffffffffff1673ffffffffffffffffffffffffffffffffffffffff163373ffffffffffffffffffffffffffffffffffffffff16146107dd576040517f08c379a00000000000000000000000000000000000000000000000000000000081526004016107d4906117e2565b60405180910390fd5b80156107f0576107eb610e78565b6107f9565b6107f8610f5f565b5b80600460006101000a81548160ff02191690831515021790555050565b61081e610dfa565b61082860006111fe565b565b600073ffffffffffffffffffffffffffffffffffffffff16600160009054906101000a900473ffffffffffffffffffffffffffffffffffffffff1673ffffffffffffffffffffffffffffffffffffffff1614156108bc576040517f08c379a00000000000000000000000000000000000000000000000000000000081526004016108b3906116e2565b60405180910390fd5b600073ffffffffffffffffffffffffffffffffffffffff16600260009054906101000a900473ffffffffffffffffffffffffffffffffffffffff1673ffffffffffffffffffffffffffffffffffffffff16141561094e576040517f08c379a000000000000000000000000000000000000000000000000000000000815260040161094590611802565b60405180910390fd5b610956610dfa565b8060038190555050565b600081600460019054906101000a900473ffffffffffffffffffffffffffffffffffffffff1673ffffffffffffffffffffffffffffffffffffffff166370a08231856040518263ffffffff1660e01b81526004016109be9190611632565b60206040518083038186803b1580156109d657600080fd5b505afa1580156109ea573d6000803e3d6000fd5b505050506040513d601f19601f82011682018060405250810190610a0e9190611451565b1015905092915050565b60008060009054906101000a900473ffffffffffffffffffffffffffffffffffffffff16905090565b6000600460019054906101000a900473ffffffffffffffffffffffffffffffffffffffff1673ffffffffffffffffffffffffffffffffffffffff166370a08231600160009054906101000a900473ffffffffffffffffffffffffffffffffffffffff166040518263ffffffff1660e01b8152600401610ac0919061164d565b60206040518083038186803b158015610ad857600080fd5b505afa158015610aec573d6000803e3d6000fd5b505050506040513d601f19601f82011682018060405250810190610b109190611451565b905090565b600260009054906101000a900473ffffffffffffffffffffffffffffffffffffffff1681565b6000600160009054906101000a900473ffffffffffffffffffffffffffffffffffffffff16905090565b610b6d610dfa565b600460009054906101000a900460ff16610bbc576040517f08c379a0000000000000000000000000000000000000000000000000000000008152600401610bb3906117c2565b60405180910390fd5b6003544711610c00576040517f08c379a0000000000000000000000000000000000000000000000000000000008152600401610bf790611762565b60405180910390fd5b8015610c7657600260009054906101000a900473ffffffffffffffffffffffffffffffffffffffff1673ffffffffffffffffffffffffffffffffffffffff166108fc6003549081150290604051600060405180830381858888f19350505050158015610c70573d6000803e3d6000fd5b50610ce2565b600160009054906101000a900473ffffffffffffffffffffffffffffffffffffffff1673ffffffffffffffffffffffffffffffffffffffff166108fc6003549081150290604051600060405180830381858888f19350505050158015610ce0573d6000803e3d6000fd5b505b60006003819055506000600460006101000a81548160ff02191690831515021790555050565b60056020528060005260406000206000915090505481565b6000600354905090565b610d32610dfa565b600073ffffffffffffffffffffffffffffffffffffffff168173ffffffffffffffffffffffffffffffffffffffff161415610da2576040517f08c379a0000000000000000000000000000000000000000000000000000000008152600401610d9990611702565b60405180910390fd5b610dab816111fe565b50565b600160009054906101000a900473ffffffffffffffffffffffffffffffffffffffff1681565b600460019054906101000a900473ffffffffffffffffffffffffffffffffffffffff1681565b610e026112c2565b73ffffffffffffffffffffffffffffffffffffffff16610e20610a18565b73ffffffffffffffffffffffffffffffffffffffff1614610e76576040517f08c379a0000000000000000000000000000000000000000000000000000000008152600401610e6d906117a2565b60405180910390fd5b565b600660009054906101000a900460ff1615610ec8576040517f08c379a0000000000000000000000000000000000000000000000000000000008152600401610ebf90611742565b60405180910390fd5b60035460056000600160009054906101000a900473ffffffffffffffffffffffffffffffffffffffff1673ffffffffffffffffffffffffffffffffffffffff1673ffffffffffffffffffffffffffffffffffffffff1681526020019081526020016000206000828254610f3b919061184e565b925050819055506001600660006101000a81548160ff021916908315150217905550565b600660009054906101000a900460ff1615610faf576040517f08c379a0000000000000000000000000000000000000000000000000000000008152600401610fa690611742565b60405180910390fd5b60035460056000600160009054906101000a900473ffffffffffffffffffffffffffffffffffffffff1673ffffffffffffffffffffffffffffffffffffffff1673ffffffffffffffffffffffffffffffffffffffff168152602001908152602001600020541015611055576040517f08c379a000000000000000000000000000000000000000000000000000000000815260040161104c90611782565b60405180910390fd5b60035460056000600160009054906101000a900473ffffffffffffffffffffffffffffffffffffffff1673ffffffffffffffffffffffffffffffffffffffff1673ffffffffffffffffffffffffffffffffffffffff16815260200190815260200160002060008282546110c891906118a4565b92505081905550600460019054906101000a900473ffffffffffffffffffffffffffffffffffffffff1673ffffffffffffffffffffffffffffffffffffffff1663a9059cbb600160009054906101000a900473ffffffffffffffffffffffffffffffffffffffff166003546040518363ffffffff1660e01b8152600401611150929190611683565b602060405180830381600087803b15801561116a57600080fd5b505af115801561117e573d6000803e3d6000fd5b505050506040513d601f19601f820116820180604052508101906111a291906113ff565b6111e1576040517f08c379a00000000000000000000000000000000000000000000000000000000081526004016111d890611722565b60405180910390fd5b6000600660006101000a81548160ff021916908315150217905550565b60008060009054906101000a900473ffffffffffffffffffffffffffffffffffffffff169050816000806101000a81548173ffffffffffffffffffffffffffffffffffffffff021916908373ffffffffffffffffffffffffffffffffffffffff1602179055508173ffffffffffffffffffffffffffffffffffffffff168173ffffffffffffffffffffffffffffffffffffffff167f8be0079c531659141344cd1fd0a4f28419497f9722a3daafe3b4186f6b6457e060405160405180910390a35050565b600033905090565b6000813590506112d981611bc7565b92915050565b6000813590506112ee81611bde565b92915050565b60008135905061130381611bf5565b92915050565b60008151905061131881611bf5565b92915050565b60008135905061132d81611c0c565b92915050565b60008151905061134281611c0c565b92915050565b60006020828403121561135a57600080fd5b6000611368848285016112ca565b91505092915050565b60006020828403121561138357600080fd5b6000611391848285016112df565b91505092915050565b600080604083850312156113ad57600080fd5b60006113bb858286016112ca565b92505060206113cc8582860161131e565b9150509250929050565b6000602082840312156113e857600080fd5b60006113f6848285016112f4565b91505092915050565b60006020828403121561141157600080fd5b600061141f84828501611309565b91505092915050565b60006020828403121561143a57600080fd5b60006114488482850161131e565b91505092915050565b60006020828403121561146357600080fd5b600061147184828501611333565b91505092915050565b61148381611932565b82525050565b611492816118ea565b82525050565b6114a1816118d8565b82525050565b6114b0816118fc565b82525050565b6114bf81611944565b82525050565b60006114d260318361183d565b91506114dd826119bb565b604082019050919050565b60006114f560268361183d565b915061150082611a0a565b604082019050919050565b6000611518600f8361183d565b915061152382611a59565b602082019050919050565b600061153b601a8361183d565b915061154682611a82565b602082019050919050565b600061155e60198361183d565b915061156982611aab565b602082019050919050565b600061158160188361183d565b915061158c82611ad4565b602082019050919050565b60006115a460208361183d565b91506115af82611afd565b602082019050919050565b60006115c760188361183d565b91506115d282611b26565b602082019050919050565b60006115ea600e8361183d565b91506115f582611b4f565b602082019050919050565b600061160d60318361183d565b915061161882611b78565b604082019050919050565b61162c81611928565b82525050565b60006020820190506116476000830184611498565b92915050565b6000602082019050611662600083018461147a565b92915050565b600060208201905061167d6000830184611489565b92915050565b6000604082019050611698600083018561147a565b6116a56020830184611623565b9392505050565b60006020820190506116c160008301846114a7565b92915050565b60006020820190506116dc60008301846114b6565b92915050565b600060208201905081810360008301526116fb816114c5565b9050919050565b6000602082019050818103600083015261171b816114e8565b9050919050565b6000602082019050818103600083015261173b8161150b565b9050919050565b6000602082019050818103600083015261175b8161152e565b9050919050565b6000602082019050818103600083015261177b81611551565b9050919050565b6000602082019050818103600083015261179b81611574565b9050919050565b600060208201905081810360008301526117bb81611597565b9050919050565b600060208201905081810360008301526117db816115ba565b9050919050565b600060208201905081810360008301526117fb816115dd565b9050919050565b6000602082019050818103600083015261181b81611600565b9050919050565b60006020820190506118376000830184611623565b92915050565b600082825260208201905092915050565b600061185982611928565b915061186483611928565b9250827fffffffffffffffffffffffffffffffffffffffffffffffffffffffffffffffff038211156118995761189861198c565b5b828201905092915050565b60006118af82611928565b91506118ba83611928565b9250828210156118cd576118cc61198c565b5b828203905092915050565b60006118e382611908565b9050919050565b60006118f582611908565b9050919050565b60008115159050919050565b600073ffffffffffffffffffffffffffffffffffffffff82169050919050565b6000819050919050565b600061193d82611968565b9050919050565b600061194f82611956565b9050919050565b600061196182611908565b9050919050565b60006119738261197a565b9050919050565b600061198582611908565b9050919050565b7f4e487b7100000000000000000000000000000000000000000000000000000000600052601160045260246000fd5b7f436f6e74726163746f7220616464726573732073686f756c64206e6f7420626560008201527f20746865207a65726f2061646472657373000000000000000000000000000000602082015250565b7f4f776e61626c653a206e6577206f776e657220697320746865207a65726f206160008201527f6464726573730000000000000000000000000000000000000000000000000000602082015250565b7f5472616e73666572206661696c65640000000000000000000000000000000000600082015250565b7f46756e6473206172652063757272656e746c792066726f7a656e000000000000600082015250565b7f496e73756666696369656e74206c6f636b65642066756e647300000000000000600082015250565b7f496e73756666696369656e742066726f7a656e2066756e640000000000000000600082015250565b7f4f776e61626c653a2063616c6c6572206973206e6f7420746865206f776e6572600082015250565b7f4e6f2066756e6473206c6f636b656420666f7220757365720000000000000000600082015250565b7f4e6f7420617574686f72697a6564000000000000000000000000000000000000600082015250565b7f467265656c616e63657220616464726573732073686f756c64206e6f7420626560008201527f20746865207a65726f2061646472657373000000000000000000000000000000602082015250565b611bd0816118d8565b8114611bdb57600080fd5b50565b611be7816118ea565b8114611bf257600080fd5b50565b611bfe816118fc565b8114611c0957600080fd5b50565b611c1581611928565b8114611c2057600080fd5b5056fea2646970667358221220a8d5da8f8b73e33a6184080f4eed41bc1d15c6125a1dd0f3061b29bc4ce4f89d64736f6c63430008040033",
  "immutableReferences": {},
  "source": "// SPDX-License-Identifier: MIT\r\npragma solidity ^0.8.4;\r\n\r\nimport \"@openzeppelin/contracts/access/Ownable.sol\";\r\nimport \"@openzeppelin/contracts/token/ERC20/IERC20.sol\";\r\n\r\ninterface ERC20Interface {\r\n    function transferFrom(address from, address to, uint256 value) external returns (bool);\r\n    function transfer(address to, uint256 value) external returns (bool);\r\n    function balanceOf(address account) external view returns (uint256);\r\n}\r\n\r\n/// @title Goojob, an EVM based freelancer<->contractor platform\r\n/// @author prunkton.eth\r\n/// @notice This is a ETHMunich 2023 hackathon project\r\n/// @dev the basic idea is to leverage ERC20 (wETH) to freeze some balance of the contractor to distribute it to the freelancer after a successfull partnership\r\n/// @custom:experimental My very first smart contract project\r\ncontract Goojob is Ownable {\r\n    address payable public contractor;\r\n    address payable public freelancer;\r\n\r\n    uint256 private amount; // the allowance the SC will freeze up from the contractor until the working contract is resolved\r\n    bool private isWorkPhase;  // if true, all agreed on the contract and the freelancer is working\r\n\r\n    ERC20Interface public token;\r\n    mapping(address => uint256) public frozenFund;\r\n    bool private fundsAreFrozen = false; // default state\r\n\r\n    constructor(address _tokenAddress) {\r\n        token = ERC20Interface(_tokenAddress);\r\n    }\r\n\r\n    function freezeFund() private {\r\n        require(!fundsAreFrozen, \"Funds are currently frozen\");\r\n        frozenFund[contractor] += amount;\r\n        fundsAreFrozen = true;\r\n    }\r\n\r\n    function unlockFundForContractor() private {\r\n        require(!fundsAreFrozen, \"Funds are currently frozen\");\r\n        require(frozenFund[contractor] >= amount, \"Insufficient frozen fund\");\r\n        \r\n        frozenFund[contractor] -= amount;\r\n        require(token.transfer(contractor, amount), \"Transfer failed\");\r\n        fundsAreFrozen = false;\r\n    }\r\n\r\n    function isFundFrozen() public view returns(bool) {\r\n        return fundsAreFrozen; //TODO unify funds/token/balance/amount\r\n    }\r\n\r\n    // Function to check if an address has at least a certain amount of tokens\r\n    function hasMinimumTokens(address addr, uint256 _amount) public view returns (bool) {\r\n        return token.balanceOf(addr) >= _amount;\r\n    }\r\n\r\n    function getContractorTokenAmount() public view returns (uint256) {\r\n        return token.balanceOf(contractor);\r\n    }\r\n\r\n    function getFreelancerTokenAmount() public view returns (uint256) {\r\n        return token.balanceOf(freelancer);\r\n    }\r\n\r\n    // Set contractor\r\n    // is this redundant with constructor?\r\n    function setContractor(address payable _contractor) public onlyOwner {\r\n        require(_contractor != address(0), \"Contractor address should not be the zero address\");\r\n        contractor = _contractor;\r\n    }\r\n\r\n    function getContractor() public view returns(address) {\r\n        return contractor;\r\n    }\r\n\r\n    function getWorkPhase() public view returns(bool) {\r\n        return isWorkPhase;\r\n    }\r\n\r\n    // The Contractor has to accept the freelancer\r\n    function setFreelancerAccess(address payable _freelancer) public isContractorAddressValid onlyOwner {\r\n        require(_freelancer != address(0), \"Freelancer address should not be the zero address\");\r\n        freelancer = _freelancer;\r\n    }\r\n\r\n    function transferFundToFreelancer() private {\r\n        require(token.transferFrom(contractor,freelancer, amount), \"Transfer failed\");\r\n    }\r\n\r\n    // the contractor is setting up the job\r\n    // the contractor has to define the amount that should get locked up\r\n    function setupJob(uint256 _amount) public isContractorAddressValid isFreelancerAddressValid onlyOwner{\r\n        amount = _amount; //we don't check if the amount is available since we will lock it up at a later point\r\n    }\r\n\r\n    function getAmount() public view returns(uint256) {\r\n        return amount;\r\n    }\r\n\r\n    // Restricted function\r\n    // only accessable by the freelancer\r\n    // it is not possible to activeley freeze or deposit funds from someones addres\r\n    // so we need to wait for the contractor to deposit the fund on the SC\r\n    function acceptJob(bool accept) public onlyFreelancerAllowed {\r\n        if(accept) {\r\n            freezeFund();\r\n        } else{\r\n            unlockFundForContractor();\r\n        }\r\n        isWorkPhase = accept;\r\n    }\r\n\r\n    // Modifier to restrict function access\r\n    modifier onlyFreelancerAllowed() {\r\n        require(msg.sender == freelancer, \"Not authorized\");\r\n        _;\r\n    }\r\n\r\n    modifier isContractorAddressValid() {\r\n        require(contractor != address(0), \"Contractor address should not be the zero address\");\r\n        _;\r\n    }\r\n\r\n    modifier isFreelancerAddressValid() {\r\n        require(freelancer != address(0), \"Freelancer address should not be the zero address\");\r\n        _;\r\n    }\r\n\r\n    function closeJob(bool conditionsMet) public payable onlyOwner {\r\n        require(isWorkPhase, \"No funds locked for user\");\r\n        require(address(this).balance > amount, \"Insufficient locked funds\");\r\n        if(conditionsMet){\r\n            payable(freelancer).transfer(amount);\r\n        }else{\r\n            payable(contractor).transfer(amount);\r\n        }\r\n        amount = 0;\r\n        isWorkPhase = false;\r\n    }\r\n}\r\n\r\n",
  "sourcePath": "/home/christian/git/ETHMunich/Goojob/solidity/contracts/Goojob.sol",
  "compiler": {
    "name": "solc",
    "version": "0.8.4+commit.c7e474f2.Emscripten.clang"
  },
  "schemaVersion": "3.4.15",
  "updatedAt": "2023-08-13T00:15:49.222Z",
  "networkType": "ethereum",
  "devdoc": {
    "author": "prunkton.eth",
    "custom:experimental": "My very first smart contract project",
    "details": "the basic idea is to leverage ERC20 (wETH) to freeze some balance of the contractor to distribute it to the freelancer after a successfull partnership",
    "kind": "dev",
    "methods": {
      "owner()": {
        "details": "Returns the address of the current owner."
      },
      "renounceOwnership()": {
        "details": "Leaves the contract without owner. It will not be possible to call `onlyOwner` functions. Can only be called by the current owner. NOTE: Renouncing ownership will leave the contract without an owner, thereby disabling any functionality that is only available to the owner."
      },
      "transferOwnership(address)": {
        "details": "Transfers ownership of the contract to a new account (`newOwner`). Can only be called by the current owner."
      }
    },
    "title": "Goojob, an EVM based freelancer<->contractor platform",
    "version": 1
  },
  "userdoc": {
    "kind": "user",
    "methods": {},
    "notice": "This is a ETHMunich 2023 hackathon project",
    "version": 1
  }
}